{
  "_format": "hh-sol-artifact-1",
  "contractName": "BurnRegistry",
  "sourceName": "contracts/BurnRegistry.sol",
  "abi": [
    {
      "anonymous": false,
      "inputs": [
        {
          "indexed": true,
          "internalType": "bytes32",
          "name": "xrplTxHash",
          "type": "bytes32"
        },
        {
          "indexed": false,
          "internalType": "uint256",
          "name": "amountWei",
          "type": "uint256"
        },
        {
          "indexed": false,
          "internalType": "string",
          "name": "tokenSymbol",
          "type": "string"
        },
        {
          "indexed": false,
          "internalType": "uint256",
          "name": "recordedAt",
          "type": "uint256"
        },
        {
          "indexed": true,
          "internalType": "address",
          "name": "recordedBy",
          "type": "address"
        }
      ],
      "name": "BurnRecorded",
      "type": "event"
    },
    {
      "inputs": [],
      "name": "burnCount",
      "outputs": [
        {
          "internalType": "uint256",
          "name": "",
          "type": "uint256"
        }
      ],
      "stateMutability": "view",
      "type": "function"
    },
    {
      "inputs": [
        {
          "internalType": "uint256",
          "name": "index",
          "type": "uint256"
        }
      ],
      "name": "getBurn",
      "outputs": [
        {
          "internalType": "bytes32",
          "name": "xrplTxHash",
          "type": "bytes32"
        },
        {
          "internalType": "uint256",
          "name": "amountWei",
          "type": "uint256"
        },
        {
          "internalType": "string",
          "name": "tokenSymbol",
          "type": "string"
        },
        {
          "internalType": "uint256",
          "name": "recordedAt",
          "type": "uint256"
        },
        {
          "internalType": "address",
          "name": "recordedBy",
          "type": "address"
        }
      ],
      "stateMutability": "view",
      "type": "function"
    },
    {
      "inputs": [
        {
          "internalType": "bytes32",
          "name": "xrplTxHash",
          "type": "bytes32"
        }
      ],
      "name": "isRecorded",
      "outputs": [
        {
          "internalType": "bool",
          "name": "",
          "type": "bool"
        }
      ],
      "stateMutability": "view",
      "type": "function"
    },
    {
      "inputs": [
        {
          "internalType": "bytes32",
          "name": "xrplTxHash",
          "type": "bytes32"
        },
        {
          "internalType": "uint256",
          "name": "amountWei",
          "type": "uint256"
        },
        {
          "internalType": "string",
          "name": "tokenSymbol",
          "type": "string"
        }
      ],
      "name": "recordBurn",
      "outputs": [],
      "stateMutability": "nonpayable",
      "type": "function"
    }
  ],
  "bytecode": "0x608060405234801561001057600080fd5b50610745806100206000396000f3fe608060405234801561001057600080fd5b506004361061004c5760003560e01c806312dcb7a0146100515780632eb3f49b14610089578063524773ce146100ad57806394fa205d146100be575b600080fd5b61007461005f366004610449565b60009081526001602052604090205460ff1690565b60405190151581526020015b60405180910390f35b61009c610097366004610449565b6100d3565b604051610080959493929190610462565b600054604051908152602001610080565b6100d16100cc3660046104d8565b610223565b005b600080606060008060008054905086106101345760405162461bcd60e51b815260206004820181905260248201527f4275726e52656769737472793a20696e646578206f7574206f662072616e676560448201526064015b60405180910390fd5b600080878154811061014857610148610558565b90600052602060002090600502019050806000015481600101548260020183600301548460040160009054906101000a90046001600160a01b031682805461018f9061056e565b80601f01602080910402602001604051908101604052809291908181526020018280546101bb9061056e565b80156102085780601f106101dd57610100808354040283529160200191610208565b820191906000526020600020905b8154815290600101906020018083116101eb57829003601f168201915b50505050509250955095509550955095505091939590929450565b836102705760405162461bcd60e51b815260206004820152601a60248201527f4275726e52656769737472793a207a65726f2074782068617368000000000000604482015260640161012b565b600083116102c05760405162461bcd60e51b815260206004820152601960248201527f4275726e52656769737472793a207a65726f20616d6f756e7400000000000000604482015260640161012b565b60008481526001602052604090205460ff161561031f5760405162461bcd60e51b815260206004820152601e60248201527f4275726e52656769737472793a20616c7265616479207265636f726465640000604482015260640161012b565b6000848152600160208181526040808420805460ff1916909317909255815160a0810183528781528082018790528251601f860183900483028101830184528581529092830191869086908190840183828082843760009201829052509385525050426020808501919091523360409485015285546001818101885596845292819020855160059094020192835584015194820194909455908201519192509060028201906103ce908261060f565b5060608201516003820155608090910151600490910180546001600160a01b0319166001600160a01b03909216919091179055604051339085907fe74507924b288c231e7fd51bdd89e5783cfcc242af862c507cbdf1ddef97a9019061043b9087908790879042906106cf565b60405180910390a350505050565b60006020828403121561045b57600080fd5b5035919050565b8581526000602086602084015260a0604084015285518060a085015260005b8181101561049d5787810183015185820160c001528201610481565b50600060c082860181019190915260608501969096526001600160a01b039490941660808401525050601f909101601f191601019392505050565b600080600080606085870312156104ee57600080fd5b8435935060208501359250604085013567ffffffffffffffff8082111561051457600080fd5b818701915087601f83011261052857600080fd5b81358181111561053757600080fd5b88602082850101111561054957600080fd5b95989497505060200194505050565b634e487b7160e01b600052603260045260246000fd5b600181811c9082168061058257607f821691505b6020821081036105a257634e487b7160e01b600052602260045260246000fd5b50919050565b634e487b7160e01b600052604160045260246000fd5b601f82111561060a576000816000526020600020601f850160051c810160208610156105e75750805b601f850160051c820191505b81811015610606578281556001016105f3565b5050505b505050565b815167ffffffffffffffff811115610629576106296105a8565b61063d81610637845461056e565b846105be565b602080601f831160018114610672576000841561065a5750858301515b600019600386901b1c1916600185901b178555610606565b600085815260208120601f198616915b828110156106a157888601518255948401946001909101908401610682565b50858210156106bf5787850151600019600388901b60f8161c191681555b5050505050600190811b01905550565b848152606060208201528260608201528284608083013760006080848301015260006080601f19601f86011683010190508260408301529594505050505056fea2646970667358221220665777d36a90a6159fd8c22f064babe9cb29a6546da3bc6aba2464645103b2fd64736f6c63430008180033",
  "linkReferences": {},
  "deployedLinkReferences": {}
}