{
  "_format": "hh-sol-artifact-1",
  "contractName": "Escrow",
  "sourceName": "contracts/Escrow.sol",
  "abi": [
    {
      "inputs": [
        {
          "internalType": "address",
          "name": "_platform",
          "type": "address"
        }
      ],
      "stateMutability": "nonpayable",
      "type": "constructor"
    },
    {
      "inputs": [
        {
          "internalType": "address",
          "name": "buyer",
          "type": "address"
        },
        {
          "internalType": "bytes32",
          "name": "listingId",
          "type": "bytes32"
        }
      ],
      "name": "adminRefund",
      "outputs": [
        {
          "internalType": "uint256",
          "name": "",
          "type": "uint256"
        }
      ],
      "stateMutability": "nonpayable",
      "type": "function"
    },
    {
      "inputs": [
        {
          "internalType": "bytes32",
          "name": "listingId",
          "type": "bytes32"
        },
        {
          "internalType": "address",
          "name": "seller",
          "type": "address"
        },
        {
          "internalType": "uint256",
          "name": "pricePerCall",
          "type": "uint256"
        }
      ],
      "name": "deposit",
      "outputs": [],
      "stateMutability": "payable",
      "type": "function"
    },
    {
      "inputs": [
        {
          "internalType": "address",
          "name": "buyer",
          "type": "address"
        },
        {
          "internalType": "bytes32",
          "name": "listingId",
          "type": "bytes32"
        }
      ],
      "name": "getPayment",
      "outputs": [
        {
          "internalType": "address",
          "name": "",
          "type": "address"
        },
        {
          "internalType": "address",
          "name": "",
          "type": "address"
        },
        {
          "internalType": "uint256",
          "name": "",
          "type": "uint256"
        },
        {
          "internalType": "uint256",
          "name": "",
          "type": "uint256"
        },
        {
          "internalType": "bool",
          "name": "",
          "type": "bool"
        }
      ],
      "stateMutability": "view",
      "type": "function"
    },
    {
      "inputs": [
        {
          "internalType": "bytes32",
          "name": "",
          "type": "bytes32"
        }
      ],
      "name": "payments",
      "outputs": [
        {
          "internalType": "address",
          "name": "buyer",
          "type": "address"
        },
        {
          "internalType": "address",
          "name": "seller",
          "type": "address"
        },
        {
          "internalType": "uint256",
          "name": "remaining",
          "type": "uint256"
        },
        {
          "internalType": "uint256",
          "name": "pricePerCall",
          "type": "uint256"
        },
        {
          "internalType": "bool",
          "name": "active",
          "type": "bool"
        }
      ],
      "stateMutability": "view",
      "type": "function"
    },
    {
      "inputs": [],
      "name": "platform",
      "outputs": [
        {
          "internalType": "address",
          "name": "",
          "type": "address"
        }
      ],
      "stateMutability": "view",
      "type": "function"
    },
    {
      "inputs": [
        {
          "internalType": "bytes32",
          "name": "listingId",
          "type": "bytes32"
        }
      ],
      "name": "refund",
      "outputs": [
        {
          "internalType": "uint256",
          "name": "",
          "type": "uint256"
        }
      ],
      "stateMutability": "nonpayable",
      "type": "function"
    },
    {
      "inputs": [
        {
          "internalType": "address",
          "name": "buyer",
          "type": "address"
        },
        {
          "internalType": "bytes32",
          "name": "listingId",
          "type": "bytes32"
        },
        {
          "internalType": "uint256",
          "name": "calls",
          "type": "uint256"
        }
      ],
      "name": "releaseUsage",
      "outputs": [
        {
          "internalType": "uint256",
          "name": "",
          "type": "uint256"
        }
      ],
      "stateMutability": "nonpayable",
      "type": "function"
    }
  ],
  "bytecode": "0x60806040523480156200001157600080fd5b5060405162001451380380620014518339818101604052810190620000379190620000e8565b806000806101000a81548173ffffffffffffffffffffffffffffffffffffffff021916908373ffffffffffffffffffffffffffffffffffffffff160217905550506200011a565b600080fd5b600073ffffffffffffffffffffffffffffffffffffffff82169050919050565b6000620000b08262000083565b9050919050565b620000c281620000a3565b8114620000ce57600080fd5b50565b600081519050620000e281620000b7565b92915050565b6000602082840312156200010157620001006200007e565b5b60006200011184828501620000d1565b91505092915050565b611327806200012a6000396000f3fe6080604052600436106100705760003560e01c80639be4dbd91161004e5780639be4dbd91461011e578063b344909a1461015b578063d954863c14610198578063e7d39c3c146101b457610070565b80630716326d146100755780634bde38c8146100b65780637249fbb6146100e1575b600080fd5b34801561008157600080fd5b5061009c60048036038101906100979190610b97565b6101f5565b6040516100ad959493929190610c39565b60405180910390f35b3480156100c257600080fd5b506100cb610278565b6040516100d89190610c8c565b60405180910390f35b3480156100ed57600080fd5b5061010860048036038101906101039190610b97565b61029c565b6040516101159190610ca7565b60405180910390f35b34801561012a57600080fd5b5061014560048036038101906101409190610cee565b61041f565b6040516101529190610ca7565b60405180910390f35b34801561016757600080fd5b50610182600480360381019061017d9190610d5a565b610633565b60405161018f9190610ca7565b60405180910390f35b6101b260048036038101906101ad9190610dad565b61090b565b005b3480156101c057600080fd5b506101db60048036038101906101d69190610cee565b610a81565b6040516101ec959493929190610c39565b60405180910390f35b60016020528060005260406000206000915090508060000160009054906101000a900473ffffffffffffffffffffffffffffffffffffffff16908060010160009054906101000a900473ffffffffffffffffffffffffffffffffffffffff16908060020154908060030154908060040160009054906101000a900460ff16905085565b60008054906101000a900473ffffffffffffffffffffffffffffffffffffffff1681565b6000806102a93384610b29565b905060006001600083815260200190815260200160002090508060040160009054906101000a900460ff16610313576040517f08c379a000000000000000000000000000000000000000000000000000000000815260040161030a90610e5d565b60405180910390fd5b6000816002015490506000826002018190555060008260040160006101000a81548160ff02191690831515021790555060008260000160009054906101000a900473ffffffffffffffffffffffffffffffffffffffff1673ffffffffffffffffffffffffffffffffffffffff168260405161038d90610eae565b60006040518083038185875af1925050503d80600081146103ca576040519150601f19603f3d011682016040523d82523d6000602084013e6103cf565b606091505b5050905080610413576040517f08c379a000000000000000000000000000000000000000000000000000000000815260040161040a90610f0f565b60405180910390fd5b81945050505050919050565b60008060009054906101000a900473ffffffffffffffffffffffffffffffffffffffff1673ffffffffffffffffffffffffffffffffffffffff163373ffffffffffffffffffffffffffffffffffffffff16146104b0576040517f08c379a00000000000000000000000000000000000000000000000000000000081526004016104a790610f7b565b60405180910390fd5b60006104bc8484610b29565b905060006001600083815260200190815260200160002090508060040160009054906101000a900460ff16610526576040517f08c379a000000000000000000000000000000000000000000000000000000000815260040161051d90610e5d565b60405180910390fd5b6000816002015490506000826002018190555060008260040160006101000a81548160ff02191690831515021790555060008260000160009054906101000a900473ffffffffffffffffffffffffffffffffffffffff1673ffffffffffffffffffffffffffffffffffffffff16826040516105a090610eae565b60006040518083038185875af1925050503d80600081146105dd576040519150601f19603f3d011682016040523d82523d6000602084013e6105e2565b606091505b5050905080610626576040517f08c379a000000000000000000000000000000000000000000000000000000000815260040161061d90610f0f565b60405180910390fd5b8194505050505092915050565b60008060009054906101000a900473ffffffffffffffffffffffffffffffffffffffff1673ffffffffffffffffffffffffffffffffffffffff163373ffffffffffffffffffffffffffffffffffffffff16146106c4576040517f08c379a00000000000000000000000000000000000000000000000000000000081526004016106bb90610f7b565b60405180910390fd5b60006106d08585610b29565b905060006001600083815260200190815260200160002090508060040160009054906101000a900460ff1661073a576040517f08c379a000000000000000000000000000000000000000000000000000000000815260040161073190610e5d565b60405180910390fd5b6000841161077d576040517f08c379a000000000000000000000000000000000000000000000000000000000815260040161077490610fe7565b60405180910390fd5b600081600301548561078f9190611036565b905081600201548111156107a557816002015490505b600081116107e8576040517f08c379a00000000000000000000000000000000000000000000000000000000081526004016107df906110c4565b60405180910390fd5b808260020160008282546107fc91906110e4565b92505081905550600082600201540361082d5760008260040160006101000a81548160ff0219169083151502179055505b60008260010160009054906101000a900473ffffffffffffffffffffffffffffffffffffffff1673ffffffffffffffffffffffffffffffffffffffff168260405161087790610eae565b60006040518083038185875af1925050503d80600081146108b4576040519150601f19603f3d011682016040523d82523d6000602084013e6108b9565b606091505b50509050806108fd576040517f08c379a00000000000000000000000000000000000000000000000000000000081526004016108f490611164565b60405180910390fd5b819450505050509392505050565b6000341161094e576040517f08c379a0000000000000000000000000000000000000000000000000000000008152600401610945906111d0565b60405180910390fd5b600061095a3385610b29565b905060006001600083815260200190815260200160002090508060040160009054906101000a900460ff16156109c5576040517f08c379a00000000000000000000000000000000000000000000000000000000081526004016109bc9061123c565b60405180910390fd5b338160000160006101000a81548173ffffffffffffffffffffffffffffffffffffffff021916908373ffffffffffffffffffffffffffffffffffffffff160217905550838160010160006101000a81548173ffffffffffffffffffffffffffffffffffffffff021916908373ffffffffffffffffffffffffffffffffffffffff16021790555034816002018190555082816003018190555060018160040160006101000a81548160ff0219169083151502179055505050505050565b600080600080600080610a948888610b29565b905060006001600083815260200190815260200160002090508060000160009054906101000a900473ffffffffffffffffffffffffffffffffffffffff168160010160009054906101000a900473ffffffffffffffffffffffffffffffffffffffff16826002015483600301548460040160009054906101000a900460ff169650965096509650965050509295509295909350565b60008282604051602001610b3e9291906112c5565b60405160208183030381529060405280519060200120905092915050565b600080fd5b6000819050919050565b610b7481610b61565b8114610b7f57600080fd5b50565b600081359050610b9181610b6b565b92915050565b600060208284031215610bad57610bac610b5c565b5b6000610bbb84828501610b82565b91505092915050565b600073ffffffffffffffffffffffffffffffffffffffff82169050919050565b6000610bef82610bc4565b9050919050565b610bff81610be4565b82525050565b6000819050919050565b610c1881610c05565b82525050565b60008115159050919050565b610c3381610c1e565b82525050565b600060a082019050610c4e6000830188610bf6565b610c5b6020830187610bf6565b610c686040830186610c0f565b610c756060830185610c0f565b610c826080830184610c2a565b9695505050505050565b6000602082019050610ca16000830184610bf6565b92915050565b6000602082019050610cbc6000830184610c0f565b92915050565b610ccb81610be4565b8114610cd657600080fd5b50565b600081359050610ce881610cc2565b92915050565b60008060408385031215610d0557610d04610b5c565b5b6000610d1385828601610cd9565b9250506020610d2485828601610b82565b9150509250929050565b610d3781610c05565b8114610d4257600080fd5b50565b600081359050610d5481610d2e565b92915050565b600080600060608486031215610d7357610d72610b5c565b5b6000610d8186828701610cd9565b9350506020610d9286828701610b82565b9250506040610da386828701610d45565b9150509250925092565b600080600060608486031215610dc657610dc5610b5c565b5b6000610dd486828701610b82565b9350506020610de586828701610cd9565b9250506040610df686828701610d45565b9150509250925092565b600082825260208201905092915050565b7f4e6f20616374697665207061796d656e74000000000000000000000000000000600082015250565b6000610e47601183610e00565b9150610e5282610e11565b602082019050919050565b60006020820190508181036000830152610e7681610e3a565b9050919050565b600081905092915050565b50565b6000610e98600083610e7d565b9150610ea382610e88565b600082019050919050565b6000610eb982610e8b565b9150819050919050565b7f526566756e64206661696c656400000000000000000000000000000000000000600082015250565b6000610ef9600d83610e00565b9150610f0482610ec3565b602082019050919050565b60006020820190508181036000830152610f2881610eec565b9050919050565b7f4f6e6c7920706c6174666f726d00000000000000000000000000000000000000600082015250565b6000610f65600d83610e00565b9150610f7082610f2f565b602082019050919050565b60006020820190508181036000830152610f9481610f58565b9050919050565b7f4e6f2063616c6c73000000000000000000000000000000000000000000000000600082015250565b6000610fd1600883610e00565b9150610fdc82610f9b565b602082019050919050565b6000602082019050818103600083015261100081610fc4565b9050919050565b7f4e487b7100000000000000000000000000000000000000000000000000000000600052601160045260246000fd5b600061104182610c05565b915061104c83610c05565b925082820261105a81610c05565b9150828204841483151761107157611070611007565b5b5092915050565b7f4e6f7468696e6720746f2072656c656173650000000000000000000000000000600082015250565b60006110ae601283610e00565b91506110b982611078565b602082019050919050565b600060208201905081810360008301526110dd816110a1565b9050919050565b60006110ef82610c05565b91506110fa83610c05565b925082820390508181111561111257611111611007565b5b92915050565b7f5472616e73666572206661696c65640000000000000000000000000000000000600082015250565b600061114e600f83610e00565b915061115982611118565b602082019050919050565b6000602082019050818103600083015261117d81611141565b9050919050565b7f4d7573742073656e642045544800000000000000000000000000000000000000600082015250565b60006111ba600d83610e00565b91506111c582611184565b602082019050919050565b600060208201905081810360008301526111e9816111ad565b9050919050565b7f5061796d656e7420616c72656164792061637469766500000000000000000000600082015250565b6000611226601683610e00565b9150611231826111f0565b602082019050919050565b6000602082019050818103600083015261125581611219565b9050919050565b60008160601b9050919050565b60006112748261125c565b9050919050565b600061128682611269565b9050919050565b61129e61129982610be4565b61127b565b82525050565b6000819050919050565b6112bf6112ba82610b61565b6112a4565b82525050565b60006112d1828561128d565b6014820191506112e182846112ae565b602082019150819050939250505056fea2646970667358221220b393f1a7bdab68b68b415c6ed844587dfc5f127cd9e0fb1ead3f7f87a6e7a3a064736f6c63430008130033",
  "linkReferences": {},
  "deployedLinkReferences": {}
}